[[
    "0xf9018b338509a8ab9cb5830493e09470c66f3ce5a5387a70e2773d054eff572525c6f480b90124000000c8000000000000000000000000000000000000000000000000703e54a61d54051f00000000000000000000000000000000000000000000002806a77f6aeba6371e00000000000000000000000000000000000000000000000000000000000000c000000000000000000000000000000000000000000000000000000000645f62720000000000000000000000000000000000000000000000000000000001073847000000000000000000000000000000000000000000000000017eed57c8b6d84c0000000000000000000000000000000000000000000000000000000000000002000000000000000000000000c02aaa39b223fe8d0a0e5c4f27ead9083c756cc2000000000000000000000000dbdb4d16eda451d0503b854cf79d55697f90c8df26a0744e8270b1554604531d846b06776e854237a5b510876567b78fce145351c5dca02436400d476edbd148d5324c0d8ed01901ca382d5c644f61ec04de80d1e0dedd",
    {
        "blockHash": "0xf40a02e945afa1299716f05078f528abee1a9f70432a0ead7286889a95bb588a",
        "blockNumber": "0x1073847",
        "from": "0x245729fdd1edd6b93e3a802c73576f26d8c4415a",
        "gas": "0x493e0",
        "gasPrice": "0x9a8ab9cb5",
        "hash": "0xa722b2e4495273e18ced939eed4989afcaba791ed52e62c05fc4dd001dab31b5",
        "input": "0x000000c8000000000000000000000000000000000000000000000000703e54a61d54051f00000000000000000000000000000000000000000000002806a77f6aeba6371e00000000000000000000000000000000000000000000000000000000000000c000000000000000000000000000000000000000000000000000000000645f62720000000000000000000000000000000000000000000000000000000001073847000000000000000000000000000000000000000000000000017eed57c8b6d84c0000000000000000000000000000000000000000000000000000000000000002000000000000000000000000c02aaa39b223fe8d0a0e5c4f27ead9083c756cc2000000000000000000000000dbdb4d16eda451d0503b854cf79d55697f90c8df",
        "nonce": "0x33",
        "to": "0x70c66f3ce5a5387a70e2773d054eff572525c6f4",
        "transactionIndex": "0x0",
        "value": "0x0",
        "type": "0x0",
        "chainId": "0x1",
        "v": "0x26",
        "r": "0x744e8270b1554604531d846b06776e854237a5b510876567b78fce145351c5dc",
        "s": "0x2436400d476edbd148d5324c0d8ed01901ca382d5c644f61ec04de80d1e0dedd"
    }
],[
    "0x02f9044901821439852c05ca9f79852c05ca9f7983025b7d94b1da760f016ff246ed5f773a0011c49a70f1299080b85911f89af99712d45a972a23eabee205342f6055ada474002a002f000000000000162c26474dda46930e40be8bc29765e11894f803906ee1055a344fdf2511000000000000168ffc49ec7a36a60bec00162c26474dda4693fffff9037ef901a4947d8146cf21e8d7cbe46054e01588207b51198729f9018ca00000000000000000000000000000000000000000000000000000000000000005a00000000000000000000000000000000000000000000000000000000000000009a0000000000000000000000000000000000000000000000000000000000000000ca00000000000000000000000000000000000000000000000000000000000000011a00000000000000000000000000000000000000000000000000000000000000018a00613c82edf2ae60124d2628bf9b0fa4eb12734da2bcd0b793d57705edb9205ffa01192f370e0fa760d99af24a34c02df1eb82b9be3bb7c16aab977afd7943d6282a02ca491393cf6747150868ed6610bb807cbd797ab98a9e86f40e6910aebeb5f7ea02e31ce464a7ba8262ad96b1b70ec47d537fbdfd7e2747d3163aaeb7cc6f7ca32a0531f213c1d228e930d972d6d76bcd5f5a412a57e5c5ad7ef64c69402a1d84e5ba07742b2953c337147008c7429511b14cf35d967ed5fcc2b474354a382a484aadca0b004ed90088abd92e4ce9da2d9185b1806523a3d4fb3e34a53a729aa2787725df8bc949af99712d45a972a23eabee205342f6055ada474f8a5a00000000000000000000000000000000000000000000000000000000000000000a00000000000000000000000000000000000000000000000000000000000000002a00000000000000000000000000000000000000000000000000000000000000004a00000000000000000000000000000000000000000000000000000000000000008a0d8a47cc0a98b326a7d41ebdba69f2440a3db7a31c7edca3bc5f01523d2fabe24f89b94be8bc29765e11894f803906ee1055a344fdf2511f884a00000000000000000000000000000000000000000000000000000000000000006a00000000000000000000000000000000000000000000000000000000000000007a00000000000000000000000000000000000000000000000000000000000000008a0000000000000000000000000000000000000000000000000000000000000000cf87a94c02aaa39b223fe8d0a0e5c4f27ead9083c756cc2f863a062b2d2b23a4c058505a5c82017c6db6789be14de8922701389af221dabed98bda08d5fcfe844e26f015c2d711bf0d8be36a295787f2c1c77eeb72d3ff2211d1e87a0b9085a4a20d7a4544671a69b1cf2ea82dde031c05ae2c2106be4dcf70c04376980a0c479dc17601f6f55860c1501c7f045a491f1a184c00d443191d9c148e1cb8aaca01af38e164ef3641d13f1b98470733622a0311990568c32f95caa756cbc13e422",
    {
        "blockHash": "0xf40a02e945afa1299716f05078f528abee1a9f70432a0ead7286889a95bb588a",
        "blockNumber": "0x1073847",
        "from": "0x23583b8104c11f3c2fb30cee228170fcffaad0b2",
        "gas": "0x25b7d",
        "gasPrice": "0x2c05ca9f79",
        "maxFeePerGas": "0x2c05ca9f79",
        "maxPriorityFeePerGas": "0x2c05ca9f79",
        "hash": "0xd378746f2309cde410c4a5537bc96f9e3738d85e7a4d2e1856c221bcc2abad1d",
        "input": "0x11f89af99712d45a972a23eabee205342f6055ada474002a002f000000000000162c26474dda46930e40be8bc29765e11894f803906ee1055a344fdf2511000000000000168ffc49ec7a36a60bec00162c26474dda4693ffff",
        "nonce": "0x1439",
        "to": "0xb1da760f016ff246ed5f773a0011c49a70f12990",
        "transactionIndex": "0x2",
        "value": "0x0",
        "type": "0x2",
        "accessList": [
            {
                "address": "0x7d8146cf21e8d7cbe46054e01588207b51198729",
                "storageKeys": [
                    "0x0000000000000000000000000000000000000000000000000000000000000005",
                    "0x0000000000000000000000000000000000000000000000000000000000000009",
                    "0x000000000000000000000000000000000000000000000000000000000000000c",
                    "0x0000000000000000000000000000000000000000000000000000000000000011",
                    "0x0000000000000000000000000000000000000000000000000000000000000018",
                    "0x0613c82edf2ae60124d2628bf9b0fa4eb12734da2bcd0b793d57705edb9205ff",
                    "0x1192f370e0fa760d99af24a34c02df1eb82b9be3bb7c16aab977afd7943d6282",
                    "0x2ca491393cf6747150868ed6610bb807cbd797ab98a9e86f40e6910aebeb5f7e",
                    "0x2e31ce464a7ba8262ad96b1b70ec47d537fbdfd7e2747d3163aaeb7cc6f7ca32",
                    "0x531f213c1d228e930d972d6d76bcd5f5a412a57e5c5ad7ef64c69402a1d84e5b",
                    "0x7742b2953c337147008c7429511b14cf35d967ed5fcc2b474354a382a484aadc",
                    "0xb004ed90088abd92e4ce9da2d9185b1806523a3d4fb3e34a53a729aa2787725d"
                ]
            },
            {
                "address": "0x9af99712d45a972a23eabee205342f6055ada474",
                "storageKeys": [
                    "0x0000000000000000000000000000000000000000000000000000000000000000",
                    "0x0000000000000000000000000000000000000000000000000000000000000002",
                    "0x0000000000000000000000000000000000000000000000000000000000000004",
                    "0x0000000000000000000000000000000000000000000000000000000000000008",
                    "0xd8a47cc0a98b326a7d41ebdba69f2440a3db7a31c7edca3bc5f01523d2fabe24"
                ]
            },
            {
                "address": "0xbe8bc29765e11894f803906ee1055a344fdf2511",
                "storageKeys": [
                    "0x0000000000000000000000000000000000000000000000000000000000000006",
                    "0x0000000000000000000000000000000000000000000000000000000000000007",
                    "0x0000000000000000000000000000000000000000000000000000000000000008",
                    "0x000000000000000000000000000000000000000000000000000000000000000c"
                ]
            },
            {
                "address": "0xc02aaa39b223fe8d0a0e5c4f27ead9083c756cc2",
                "storageKeys": [
                    "0x62b2d2b23a4c058505a5c82017c6db6789be14de8922701389af221dabed98bd",
                    "0x8d5fcfe844e26f015c2d711bf0d8be36a295787f2c1c77eeb72d3ff2211d1e87",
                    "0xb9085a4a20d7a4544671a69b1cf2ea82dde031c05ae2c2106be4dcf70c043769"
                ]
            }
        ],
        "chainId": "0x1",
        "v": "0x0",
        "r": "0xc479dc17601f6f55860c1501c7f045a491f1a184c00d443191d9c148e1cb8aac",
        "s": "0x1af38e164ef3641d13f1b98470733622a0311990568c32f95caa756cbc13e422"
    }
],[
    "0x02f9015c018211cb851bf08eb000852a41201c2d830370bb947a250d5630b4cf539739df2c5dacb4c659f2488d88016345785d8a0000b8e4b6f9de95000000000000000000000000000000000000000000d55a1589c3154097e45c320000000000000000000000000000000000000000000000000000000000000080000000000000000000000000275121b5734bdae3bd97da0fe37f47450656cb1300000000000000000000000000000000000000000000000000000000645f627f0000000000000000000000000000000000000000000000000000000000000002000000000000000000000000c02aaa39b223fe8d0a0e5c4f27ead9083c756cc20000000000000000000000003333001e84f564e9dcc41be69b983887531e19b8c080a0c876922f32d0aca70863690295cfd0996cd3aae1b5a776e9c7407426e1784cbfa04d2bf60e5017b904affeadc98b8d504fe484fbbdaa02c152ac53bd33af6ea2fe",
    {
        "blockHash": "0xf40a02e945afa1299716f05078f528abee1a9f70432a0ead7286889a95bb588a",
        "blockNumber": "0x1073847",
        "from": "0x275121b5734bdae3bd97da0fe37f47450656cb13",
        "gas": "0x370bb",
        "gasPrice": "0x258ced0727",
        "maxFeePerGas": "0x2a41201c2d",
        "maxPriorityFeePerGas": "0x1bf08eb000",
        "hash": "0x537f8e360f3a116a9388ed81c02aa35e607b698605c9f063f4dfb4098bea973e",
        "input": "0xb6f9de95000000000000000000000000000000000000000000d55a1589c3154097e45c320000000000000000000000000000000000000000000000000000000000000080000000000000000000000000275121b5734bdae3bd97da0fe37f47450656cb1300000000000000000000000000000000000000000000000000000000645f627f0000000000000000000000000000000000000000000000000000000000000002000000000000000000000000c02aaa39b223fe8d0a0e5c4f27ead9083c756cc20000000000000000000000003333001e84f564e9dcc41be69b983887531e19b8",
        "nonce": "0x11cb",
        "to": "0x7a250d5630b4cf539739df2c5dacb4c659f2488d",
        "transactionIndex": "0x3",
        "value": "0x16345785d8a0000",
        "type": "0x2",
        "accessList": [],
        "chainId": "0x1",
        "v": "0x0",
        "r": "0xc876922f32d0aca70863690295cfd0996cd3aae1b5a776e9c7407426e1784cbf",
        "s": "0x4d2bf60e5017b904affeadc98b8d504fe484fbbdaa02c152ac53bd33af6ea2fe"
    }
],[
    "0x02f9015c018201708509502f90008517a0c0fc2d83034d4b947a250d5630b4cf539739df2c5dacb4c659f2488d88016345785d8a0000b8e4b6f9de9500000000000000000000000000000000000000000d2a0afbcccf14d095a949aa00000000000000000000000000000000000000000000000000000000000000800000000000000000000000004038a44b34dc6974b2d609715c00da7df845c4f900000000000000000000000000000000000000000000000000000000645f627f0000000000000000000000000000000000000000000000000000000000000002000000000000000000000000c02aaa39b223fe8d0a0e5c4f27ead9083c756cc20000000000000000000000005b68e1c25e0e4f3c70871745593a115f51e60c79c080a0c3709a672959ae8d46e69e2dcd91d702eddb681fd52525c05c1d9e54510171c0a054a07588207fbfc9ddc2aa500b624c6163feadcdf2c0ad65a5af3475471f295a",
    {
        "blockHash": "0xf40a02e945afa1299716f05078f528abee1a9f70432a0ead7286889a95bb588a",
        "blockNumber": "0x1073847",
        "from": "0x4038a44b34dc6974b2d609715c00da7df845c4f9",
        "gas": "0x34d4b",
        "gasPrice": "0x12ec8de727",
        "maxFeePerGas": "0x17a0c0fc2d",
        "maxPriorityFeePerGas": "0x9502f9000",
        "hash": "0x8496b6287d75c7cdd630a56c59d96335f39975c310c41e1f9231721326fb1515",
        "input": "0xb6f9de9500000000000000000000000000000000000000000d2a0afbcccf14d095a949aa00000000000000000000000000000000000000000000000000000000000000800000000000000000000000004038a44b34dc6974b2d609715c00da7df845c4f900000000000000000000000000000000000000000000000000000000645f627f0000000000000000000000000000000000000000000000000000000000000002000000000000000000000000c02aaa39b223fe8d0a0e5c4f27ead9083c756cc20000000000000000000000005b68e1c25e0e4f3c70871745593a115f51e60c79",
        "nonce": "0x170",
        "to": "0x7a250d5630b4cf539739df2c5dacb4c659f2488d",
        "transactionIndex": "0x4",
        "value": "0x16345785d8a0000",
        "type": "0x2",
        "accessList": [],
        "chainId": "0x1",
        "v": "0x0",
        "r": "0xc3709a672959ae8d46e69e2dcd91d702eddb681fd52525c05c1d9e54510171c0",
        "s": "0x54a07588207fbfc9ddc2aa500b624c6163feadcdf2c0ad65a5af3475471f295a"
    }
],[
    "0x02f9037501820be0850df8475800850df847580083053e8894e592427a0aece92de3edee1f18e0157c0586156480b90304ac9650d8000000000000000000000000000000000000000000000000000000000000002000000000000000000000000000000000000000000000000000000000000000020000000000000000000000000000000000000000000000000000000000000040000000000000000000000000000000000000000000000000000000000000014000000000000000000000000000000000000000000000000000000000000000c4f3995c67000000000000000000000000a0b86991c6218b36c1d19d4a2e9eb0ce3606eb4800000000000000000000000000000000000000000000000000000006fc23ac0000000000000000000000000000000000000000000000000000000000645f6ce3000000000000000000000000000000000000000000000000000000000000001bb4118d72099a05fb4489001ade8e1a70662c1a750f50130cc25d32101cb35049538a133c4ef9965ba673c668e0ce3ccafcba851b2692dde8f6d2bb873fae4052000000000000000000000000000000000000000000000000000000000000000000000000000000000000000000000000000000000000000000000144c04b8d59000000000000000000000000000000000000000000000000000000000000002000000000000000000000000000000000000000000000000000000000000000a00000000000000000000000009177a583d7603655b4ddf2b6f8bf8dc710ff12dc00000000000000000000000000000000000000000000000000000000645f68ff00000000000000000000000000000000000000000000000000000006fc23ac000000000000000000000000000000000000000000001a9b7f49dd600929929c0c0000000000000000000000000000000000000000000000000000000000000042a0b86991c6218b36c1d19d4a2e9eb0ce3606eb480001f4c02aaa39b223fe8d0a0e5c4f27ead9083c756cc2000bb825722cd432d02895d9be45f5deb60fc479c8781e00000000000000000000000000000000000000000000000000000000000000000000000000000000000000000000000000000000000000000000c080a0d8527a57323dc56bbf4796ef94a57efc4fa1ddd19673f06d41a7e6724b6d3f56a055bbdfc6d22753483c5805350c3d8d049fce9b1c2a65e0a19adae17ead7c84ab",
    {
        "blockHash": "0xf40a02e945afa1299716f05078f528abee1a9f70432a0ead7286889a95bb588a",
        "blockNumber": "0x1073847",
        "from": "0x9177a583d7603655b4ddf2b6f8bf8dc710ff12dc",
        "gas": "0x53e88",
        "gasPrice": "0xdf8475800",
        "maxFeePerGas": "0xdf8475800",
        "maxPriorityFeePerGas": "0xdf8475800",
        "hash": "0x8f7c8cce7bb18a746a0beec5c97a68ee994c89be272db2fade83e00c70d69ae0",
        "input": "0xac9650d8000000000000000000000000000000000000000000000000000000000000002000000000000000000000000000000000000000000000000000000000000000020000000000000000000000000000000000000000000000000000000000000040000000000000000000000000000000000000000000000000000000000000014000000000000000000000000000000000000000000000000000000000000000c4f3995c67000000000000000000000000a0b86991c6218b36c1d19d4a2e9eb0ce3606eb4800000000000000000000000000000000000000000000000000000006fc23ac0000000000000000000000000000000000000000000000000000000000645f6ce3000000000000000000000000000000000000000000000000000000000000001bb4118d72099a05fb4489001ade8e1a70662c1a750f50130cc25d32101cb35049538a133c4ef9965ba673c668e0ce3ccafcba851b2692dde8f6d2bb873fae4052000000000000000000000000000000000000000000000000000000000000000000000000000000000000000000000000000000000000000000000144c04b8d59000000000000000000000000000000000000000000000000000000000000002000000000000000000000000000000000000000000000000000000000000000a00000000000000000000000009177a583d7603655b4ddf2b6f8bf8dc710ff12dc00000000000000000000000000000000000000000000000000000000645f68ff00000000000000000000000000000000000000000000000000000006fc23ac000000000000000000000000000000000000000000001a9b7f49dd600929929c0c0000000000000000000000000000000000000000000000000000000000000042a0b86991c6218b36c1d19d4a2e9eb0ce3606eb480001f4c02aaa39b223fe8d0a0e5c4f27ead9083c756cc2000bb825722cd432d02895d9be45f5deb60fc479c8781e00000000000000000000000000000000000000000000000000000000000000000000000000000000000000000000000000000000000000000000",
        "nonce": "0xbe0",
        "to": "0xe592427a0aece92de3edee1f18e0157c05861564",
        "transactionIndex": "0x6",
        "value": "0x0",
        "type": "0x2",
        "accessList": [],
        "chainId": "0x1",
        "v": "0x0",
        "r": "0xd8527a57323dc56bbf4796ef94a57efc4fa1ddd19673f06d41a7e6724b6d3f56",
        "s": "0x55bbdfc6d22753483c5805350c3d8d049fce9b1c2a65e0a19adae17ead7c84ab"
    }
],[
    "0xf901758205378514f46b040083016c9594d37bbe5744d730a1d98d8dc97c42f0ca46ad7146882d857a632deafc00b90104574da717000000000000000000000000286f51877f4d3d8e9208d741f145c3efbc89272400000000000000000000000000000000000000000000000000000000000000000000000000000000000000000000000000000000000000002d857a632deafc00000000000000000000000000000000000000000000000000000000000000008000000000000000000000000000000000000000000000000000000000000000444f55543a353939343133384138393536314642303231464535453837324630433842453338323137373939323831393133364537414237353032333042384242323343340000000000000000000000000000000000000000000000000000000025a0793652690b0d37c7fb0285b8a4558e44557cfead09883dca8e5b4dfb4893f703a029876b7c5ca567a576a089ab3e84e511713ce670de7335820480f46444bb46d1",
    {
        "blockHash": "0xf40a02e945afa1299716f05078f528abee1a9f70432a0ead7286889a95bb588a",
        "blockNumber": "0x1073847",
        "from": "0xc646adcb54229c2deda096d2187a779a5ef969e9",
        "gas": "0x16c95",
        "gasPrice": "0x14f46b0400",
        "hash": "0xce1f61dbbad8b6aa3c349be3718c8901b426e9979d9beec4905c5c4a65a1381e",
        "input": "0x574da717000000000000000000000000286f51877f4d3d8e9208d741f145c3efbc89272400000000000000000000000000000000000000000000000000000000000000000000000000000000000000000000000000000000000000002d857a632deafc00000000000000000000000000000000000000000000000000000000000000008000000000000000000000000000000000000000000000000000000000000000444f55543a3539393431333841383935363146423032314645354538373246304338424533383231373739393238313931333645374142373530323330423842423233433400000000000000000000000000000000000000000000000000000000",
        "nonce": "0x537",
        "to": "0xd37bbe5744d730a1d98d8dc97c42f0ca46ad7146",
        "transactionIndex": "0x7",
        "value": "0x2d857a632deafc00",
        "type": "0x0",
        "chainId": "0x1",
        "v": "0x25",
        "r": "0x793652690b0d37c7fb0285b8a4558e44557cfead09883dca8e5b4dfb4893f703",
        "s": "0x29876b7c5ca567a576a089ab3e84e511713ce670de7335820480f46444bb46d1"
    }
],[
    "0x02f9015c018211e8850737be76008515884fe22d8302e6bb947a250d5630b4cf539739df2c5dacb4c659f2488d880214e8348c4f0000b8e4b6f9de95000000000000000000000000000000000000000000000000000000000000000000000000000000000000000000000000000000000000000000000000000000800000000000000000000000008899e36cb10b339f4823ec48bdf310909da9f99f00000000000000000000000000000000000000000000000000000000645f62830000000000000000000000000000000000000000000000000000000000000002000000000000000000000000c02aaa39b223fe8d0a0e5c4f27ead9083c756cc20000000000000000000000005b68e1c25e0e4f3c70871745593a115f51e60c79c001a0acfd9c86b4dcd989887edbfbfc685a2deeb7f1f01e51452088b3d8a86d5b4303a03f2cf06b7ce0eb1f16c6044e72d7af166d144bf3162073b23df063ccff04ef20",
    {
        "blockHash": "0xf40a02e945afa1299716f05078f528abee1a9f70432a0ead7286889a95bb588a",
        "blockNumber": "0x1073847",
        "from": "0x8899e36cb10b339f4823ec48bdf310909da9f99f",
        "gas": "0x2e6bb",
        "gasPrice": "0x10d41ccd27",
        "maxFeePerGas": "0x15884fe22d",
        "maxPriorityFeePerGas": "0x737be7600",
        "hash": "0xc5b60dfb048e81f04085ded440398379dfc2870bdf0f00a2c0a2a74920ef57e8",
        "input": "0xb6f9de95000000000000000000000000000000000000000000000000000000000000000000000000000000000000000000000000000000000000000000000000000000800000000000000000000000008899e36cb10b339f4823ec48bdf310909da9f99f00000000000000000000000000000000000000000000000000000000645f62830000000000000000000000000000000000000000000000000000000000000002000000000000000000000000c02aaa39b223fe8d0a0e5c4f27ead9083c756cc20000000000000000000000005b68e1c25e0e4f3c70871745593a115f51e60c79",
        "nonce": "0x11e8",
        "to": "0x7a250d5630b4cf539739df2c5dacb4c659f2488d",
        "transactionIndex": "0x8",
        "value": "0x214e8348c4f0000",
        "type": "0x2",
        "accessList": [],
        "chainId": "0x1",
        "v": "0x1",
        "r": "0xacfd9c86b4dcd989887edbfbfc685a2deeb7f1f01e51452088b3d8a86d5b4303",
        "s": "0x3f2cf06b7ce0eb1f16c6044e72d7af166d144bf3162073b23df063ccff04ef20"
    }
],[
    "0x02f8b3018201c28505d21dba00851422af262d82dd4c94ec5f46ca4ddee498254eb454353bc93a8e2aa2d680b844095ea7b30000000000000000000000007a250d5630b4cf539739df2c5dacb4c659f2488dffffffffffffffffffffffffffffffffffffffffffffffffffffffffffffffffc001a03908468535ecc6c7514e074f6354521b21868ee3870dbf41815ced3b8187180ea034100c94c4e73627d0cb7c86efa65f9b4a603d93b4c97653172c385ba23f511c",
    {
        "blockHash": "0xf40a02e945afa1299716f05078f528abee1a9f70432a0ead7286889a95bb588a",
        "blockNumber": "0x1073847",
        "from": "0xb61b63632ebff5a510845bcd1c4e7010a1604cfb",
        "gas": "0xdd4c",
        "gasPrice": "0xf6e7c1127",
        "maxFeePerGas": "0x1422af262d",
        "maxPriorityFeePerGas": "0x5d21dba00",
        "hash": "0x07dc38f5bf87cae1b1cfe78b013c8ce30696f4f169e421ed3321c95dc3d65855",
        "input": "0x095ea7b30000000000000000000000007a250d5630b4cf539739df2c5dacb4c659f2488dffffffffffffffffffffffffffffffffffffffffffffffffffffffffffffffff",
        "nonce": "0x1c2",
        "to": "0xec5f46ca4ddee498254eb454353bc93a8e2aa2d6",
        "transactionIndex": "0x9",
        "value": "0x0",
        "type": "0x2",
        "accessList": [],
        "chainId": "0x1",
        "v": "0x1",
        "r": "0x3908468535ecc6c7514e074f6354521b21868ee3870dbf41815ced3b8187180e",
        "s": "0x34100c94c4e73627d0cb7c86efa65f9b4a603d93b4c97653172c385ba23f511c"
    }
]]
