[[
    "0x02f874010c851e449a94008522ecb25c0082520894cac34b1734ef4883e6c9ca52ffc719eabea98bc188333583731531000080c080a0fd03f27ed3f1e77cf21685ba813018fc57f43ed89fe4aa08fe9bd2427ba6366ba037835af833f9196d47ea531d7bee375189685e84f57b06e3eda3848056572382",
    {
        "blockHash": "0xf40a02e945afa1299716f05078f528abee1a9f70432a0ead7286889a95bb588a",
        "blockNumber": "0x1073847",
        "from": "0xc8e989a7480f1c9d014292fc0ac98e9001fdc497",
        "gas": "0x5208",
        "gasPrice": "0x22ecb25c00",
        "maxFeePerGas": "0x22ecb25c00",
        "maxPriorityFeePerGas": "0x1e449a9400",
        "hash": "0xd9467f39da658ef9f3a3e752bd8b1a1b85549d9e92047a6141aa1b8045953807",
        "input": "0x",
        "nonce": "0xc",
        "to": "0xcac34b1734ef4883e6c9ca52ffc719eabea98bc1",
        "transactionIndex": "0xd",
        "value": "0x3335837315310000",
        "type": "0x2",
        "accessList": [],
        "chainId": "0x1",
        "v": "0x0",
        "r": "0xfd03f27ed3f1e77cf21685ba813018fc57f43ed89fe4aa08fe9bd2427ba6366b",
        "s": "0x37835af833f9196d47ea531d7bee375189685e84f57b06e3eda3848056572382"
    }
],
[
    "0xf86c80850b47e9e76e82a41094681c404a34efc8fc21542a5f6d673393136ebf5b8806f05b59d3b200008025a0b77020774232f25a8911ce8078101ab003cfd9a4621e7bce97a6e9f3819dba13a05e0afd94604644c72be9580bc6ac45966b4d014ca16956d510d37bd9f418cfc1",
    {
        "blockHash": "0xf40a02e945afa1299716f05078f528abee1a9f70432a0ead7286889a95bb588a",
        "blockNumber": "0x1073847",
        "from": "0xab5e3fd83c954ef5056d26e3a787ed552cd53ad5",
        "gas": "0xa410",
        "gasPrice": "0xb47e9e76e",
        "hash": "0x6ffa0b539501a62b29350e136ff1acda37fd075807ab15a6bf4e46b6b3253daf",
        "input": "0x",
        "nonce": "0x0",
        "to": "0x681c404a34efc8fc21542a5f6d673393136ebf5b",
        "transactionIndex": "0x14",
        "value": "0x6f05b59d3b20000",
        "type": "0x0",
        "chainId": "0x1",
        "v": "0x25",
        "r": "0xb77020774232f25a8911ce8078101ab003cfd9a4621e7bce97a6e9f3819dba13",
        "s": "0x5e0afd94604644c72be9580bc6ac45966b4d014ca16956d510d37bd9f418cfc1"
    }
],
[
    "0xf86446850aa09fa9d882520894f1d817d29ff919cd7570527a7071cf34bbfbb9f8808026a08199718c4768868fef3a6d3e9db55d990826caf4db4d884712d1c417630b8a40a02d787c5528ebd9b43ff384f42a3cdb832905f4445c61400934032359c863bf20",
    {
        "blockHash": "0xf40a02e945afa1299716f05078f528abee1a9f70432a0ead7286889a95bb588a",
        "blockNumber": "0x1073847",
        "from": "0xf1d817d29ff919cd7570527a7071cf34bbfbb9f8",
        "gas": "0x5208",
        "gasPrice": "0xaa09fa9d8",
        "hash": "0x438269ec767abae1e740ebf9e7f03af371b6c0a644b2b4d061228685e6f4c398",
        "input": "0x",
        "nonce": "0x46",
        "to": "0xf1d817d29ff919cd7570527a7071cf34bbfbb9f8",
        "transactionIndex": "0x1a",
        "value": "0x0",
        "type": "0x0",
        "chainId": "0x1",
        "v": "0x26",
        "r": "0x8199718c4768868fef3a6d3e9db55d990826caf4db4d884712d1c417630b8a40",
        "s": "0x2d787c5528ebd9b43ff384f42a3cdb832905f4445c61400934032359c863bf20"
    }
],[
    "0x02f8750183081264847744d640850fbe3aa94782520894f2a6e3251e5d1e2ef326dc99efb1584a5ca5badb8728803d5670800080c080a0c84e819e1c140cf2ee1f3fc2e30fa66edaa0907dacdc1ada788e6f6a5775bcb0a0428820f4f96e657a165a41ee4238d954486de13521a9ecaf01d63f9a03159d8e",
    {
        "blockHash": "0xf40a02e945afa1299716f05078f528abee1a9f70432a0ead7286889a95bb588a",
        "blockNumber": "0x1073847",
        "from": "0x151b381058f91cf871e7ea1ee83c45326f61e96d",
        "gas": "0x5208",
        "gasPrice": "0xa13a32d67",
        "maxFeePerGas": "0xfbe3aa947",
        "maxPriorityFeePerGas": "0x7744d640",
        "hash": "0xcacb2d82551f9f066f8019099096f9402541fc016d086e3350bb4dd8714fa0ec",
        "input": "0x",
        "nonce": "0x81264",
        "to": "0xf2a6e3251e5d1e2ef326dc99efb1584a5ca5badb",
        "transactionIndex": "0x27",
        "value": "0x28803d56708000",
        "type": "0x2",
        "accessList": [],
        "chainId": "0x1",
        "v": "0x0",
        "r": "0xc84e819e1c140cf2ee1f3fc2e30fa66edaa0907dacdc1ada788e6f6a5775bcb0",
        "s": "0x428820f4f96e657a165a41ee4238d954486de13521a9ecaf01d63f9a03159d8e"
    }
],[
    "0x02f87601835d4f8884773594008517bfac7c008303291894c6aea205d43c50b2682e1a8e0618ec7b71a05842872e7b487174500080c080a096651c35eba38bb93d1690b6123acf58821e49d7a3a52adf56584a2dfafb8d89a056b7d58e8526dda9e53c48ebb514921be46a5b3109be69975defa82e75be23bc",
    {
        "blockHash": "0xf40a02e945afa1299716f05078f528abee1a9f70432a0ead7286889a95bb588a",
        "blockNumber": "0x1073847",
        "from": "0xdfd5293d8e347dfe59e90efd55b2956a1343963d",
        "gas": "0x32918",
        "gasPrice": "0xa1393eb27",
        "maxFeePerGas": "0x17bfac7c00",
        "maxPriorityFeePerGas": "0x77359400",
        "hash": "0x9712039a9abbf2844688f5df8546633b3bc439fa96be3edeaf87a150834cce58",
        "input": "0x",
        "nonce": "0x5d4f88",
        "to": "0xc6aea205d43c50b2682e1a8e0618ec7b71a05842",
        "transactionIndex": "0x2b",
        "value": "0x2e7b4871745000",
        "type": "0x2",
        "accessList": [],
        "chainId": "0x1",
        "v": "0x0",
        "r": "0x96651c35eba38bb93d1690b6123acf58821e49d7a3a52adf56584a2dfafb8d89",
        "s": "0x56b7d58e8526dda9e53c48ebb514921be46a5b3109be69975defa82e75be23bc"
    }
],[
    "0x02f87701834486d184773594008517bfac7c008303291894c62e190e6bbafb1debead404c26fb3fe54e1d09588017cd0026dc2200080c001a03f8463761de11c8ef1e9fc7fa9f2502900cdda4d5603c4bbfe1feeb4714259fba013f1e0f5714dffc82a160322bdc74f3c9df5127ce7d86886b47187cfde0d30da",
    {
        "blockHash": "0xf40a02e945afa1299716f05078f528abee1a9f70432a0ead7286889a95bb588a",
        "blockNumber": "0x1073847",
        "from": "0x9696f59e4d72e237be84ffd425dcad154bf96976",
        "gas": "0x32918",
        "gasPrice": "0xa1393eb27",
        "maxFeePerGas": "0x17bfac7c00",
        "maxPriorityFeePerGas": "0x77359400",
        "hash": "0xace88f11549082f20900c8780285980fba25774c126c11dcbf003198f68b6e3a",
        "input": "0x",
        "nonce": "0x4486d1",
        "to": "0xc62e190e6bbafb1debead404c26fb3fe54e1d095",
        "transactionIndex": "0x2c",
        "value": "0x17cd0026dc22000",
        "type": "0x2",
        "accessList": [],
        "chainId": "0x1",
        "v": "0x1",
        "r": "0x3f8463761de11c8ef1e9fc7fa9f2502900cdda4d5603c4bbfe1feeb4714259fb",
        "s": "0x13f1e0f5714dffc82a160322bdc74f3c9df5127ce7d86886b47187cfde0d30da"
    }
],[
    "0x02f876018365f8df84773594008517bfac7c0083032918947cbe06ae9540fee26039c0c4d377439cebc2c357878881dc4bf8480080c080a0ae812be76b776357bdb387214cdfa8a0ed7e32724891be4b3bf399f90b112d4ea016064ca4e9461d693c1b97f65943160bbc0a943d666c5c74eddaaecd2e2eda68",
    {
        "blockHash": "0xf40a02e945afa1299716f05078f528abee1a9f70432a0ead7286889a95bb588a",
        "blockNumber": "0x1073847",
        "from": "0x28c6c06298d514db089934071355e5743bf21d60",
        "gas": "0x32918",
        "gasPrice": "0xa1393eb27",
        "maxFeePerGas": "0x17bfac7c00",
        "maxPriorityFeePerGas": "0x77359400",
        "hash": "0xeabbe98b62da32c7ddd8e978bf755252b7261edfca5aaf8fc3759d46c32ed2d5",
        "input": "0x",
        "nonce": "0x65f8df",
        "to": "0x7cbe06ae9540fee26039c0c4d377439cebc2c357",
        "transactionIndex": "0x2d",
        "value": "0x8881dc4bf84800",
        "type": "0x2",
        "accessList": [],
        "chainId": "0x1",
        "v": "0x0",
        "r": "0xae812be76b776357bdb387214cdfa8a0ed7e32724891be4b3bf399f90b112d4e",
        "s": "0x16064ca4e9461d693c1b97f65943160bbc0a943d666c5c74eddaaecd2e2eda68"
    }
],[
    "0x02f87301268477359400850bb91fc75482520894d3572c41f0396df5d1f0abf60595f58cbed79af28804aebc55c5eb0c7d80c080a051ebfa9bdfef3ae11f410a0e457977c9b16b9e8cfc1dce29cd9507aab09ebb5aa04b7b2afdb760db9fcc30f568fbc036b3a4960b95fee8ae22a5c4588395e0cfc9",
    {
        "blockHash": "0xf40a02e945afa1299716f05078f528abee1a9f70432a0ead7286889a95bb588a",
        "blockNumber": "0x1073847",
        "from": "0x0f0136d75c50055b2f2f544950bcf8ae2b5fe0e7",
        "gas": "0x5208",
        "gasPrice": "0xa1393eb27",
        "maxFeePerGas": "0xbb91fc754",
        "maxPriorityFeePerGas": "0x77359400",
        "hash": "0xee7a3b5cc735db0fba4999d43f087d7bdfb7ad56140e5c1834aeebaf3e1fc187",
        "input": "0x",
        "nonce": "0x26",
        "to": "0xd3572c41f0396df5d1f0abf60595f58cbed79af2",
        "transactionIndex": "0x2f",
        "value": "0x4aebc55c5eb0c7d",
        "type": "0x2",
        "accessList": [],
        "chainId": "0x1",
        "v": "0x0",
        "r": "0x51ebfa9bdfef3ae11f410a0e457977c9b16b9e8cfc1dce29cd9507aab09ebb5a",
        "s": "0x4b7b2afdb760db9fcc30f568fbc036b3a4960b95fee8ae22a5c4588395e0cfc9"
    }
]]
